{"abi":[{"type":"constructor","inputs":[],"stateMutability":"nonpayable"},{"type":"receive","stateMutability":"payable"},{"type":"function","name":"batchTransferCombinedMultiTokens","inputs":[{"name":"tokenAddresses","type":"address[]","internalType":"address[]"},{"name":"tokenRecipients","type":"address[]","internalType":"address[]"},{"name":"tokenAmounts","type":"uint256[]","internalType":"uint256[]"},{"name":"ethRecipients","type":"address[]","internalType":"address[]"},{"name":"ethAmounts","type":"uint256[]","internalType":"uint256[]"}],"outputs":[],"stateMutability":"payable"},{"type":"function","name":"batchTransferEth","inputs":[{"name":"recipients","type":"address[]","internalType":"address[]"},{"name":"amounts","type":"uint256[]","internalType":"uint256[]"}],"outputs":[],"stateMutability":"payable"},{"type":"function","name":"batchTransferMultiTokens","inputs":[{"name":"tokenAddresses","type":"address[]","internalType":"address[]"},{"name":"recipients","type":"address[]","internalType":"address[]"},{"name":"amounts","type":"uint256[]","internalType":"uint256[]"}],"outputs":[],"stateMutability":"nonpayable"},{"type":"function","name":"batchTransferToken","inputs":[{"name":"tokenAddress","type":"address","internalType":"address"},{"name":"recipients","type":"address[]","internalType":"address[]"},{"name":"amounts","type":"uint256[]","internalType":"uint256[]"}],"outputs":[],"stateMutability":"nonpayable"},{"type":"function","name":"emergencyWithdrawEth","inputs":[{"name":"to","type":"address","internalType":"address payable"},{"name":"amount","type":"uint256","internalType":"uint256"}],"outputs":[],"stateMutability":"nonpayable"},{"type":"function","name":"emergencyWithdrawToken","inputs":[{"name":"tokenAddress","type":"address","internalType":"address"},{"name":"to","type":"address","internalType":"address"},{"name":"amount","type":"uint256","internalType":"uint256"}],"outputs":[],"stateMutability":"nonpayable"},{"type":"function","name":"maxRecipients","inputs":[],"outputs":[{"name":"","type":"uint256","internalType":"uint256"}],"stateMutability":"view"},{"type":"function","name":"owner","inputs":[],"outputs":[{"name":"","type":"address","internalType":"address"}],"stateMutability":"view"},{"type":"function","name":"pause","inputs":[],"outputs":[],"stateMutability":"nonpayable"},{"type":"function","name":"paused","inputs":[],"outputs":[{"name":"","type":"bool","internalType":"bool"}],"stateMutability":"view"},{"type":"function","name":"renounceOwnership","inputs":[],"outputs":[],"stateMutability":"nonpayable"},{"type":"function","name":"setMaxRecipients","inputs":[{"name":"_maxRecipients","type":"uint256","internalType":"uint256"}],"outputs":[],"stateMutability":"nonpayable"},{"type":"function","name":"simpleBatchTransferToken","inputs":[{"name":"tokenAddress","type":"address","internalType":"address"},{"name":"recipients","type":"address[]","internalType":"address[]"},{"name":"amounts","type":"uint256[]","internalType":"uint256[]"}],"outputs":[],"stateMutability":"nonpayable"},{"type":"function","name":"transferOwnership","inputs":[{"name":"newOwner","type":"address","internalType":"address"}],"outputs":[],"stateMutability":"nonpayable"},{"type":"function","name":"unpause","inputs":[],"outputs":[],"stateMutability":"nonpayable"},{"type":"event","name":"BatchTransferCombined","inputs":[{"name":"sender","type":"address","indexed":true,"internalType":"address"},{"name":"ethAmount","type":"uint256","indexed":false,"internalType":"uint256"},{"name":"tokenCount","type":"uint256","indexed":false,"internalType":"uint256"},{"name":"batchHash","type":"bytes32","indexed":true,"internalType":"bytes32"}],"anonymous":false},{"type":"event","name":"BatchTransferEth","inputs":[{"name":"sender","type":"address","indexed":true,"internalType":"address"},{"name":"totalAmount","type":"uint256","indexed":false,"internalType":"uint256"},{"name":"recipientCount","type":"uint256","indexed":false,"internalType":"uint256"},{"name":"batchHash","type":"bytes32","indexed":true,"internalType":"bytes32"}],"anonymous":false},{"type":"event","name":"BatchTransferMultiToken","inputs":[{"name":"sender","type":"address","indexed":true,"internalType":"address"},{"name":"tokenCount","type":"uint256","indexed":false,"internalType":"uint256"},{"name":"batchHash","type":"bytes32","indexed":true,"internalType":"bytes32"}],"anonymous":false},{"type":"event","name":"BatchTransferToken","inputs":[{"name":"sender","type":"address","indexed":true,"internalType":"address"},{"name":"token","type":"address","indexed":true,"internalType":"address"},{"name":"totalAmount","type":"uint256","indexed":false,"internalType":"uint256"},{"name":"recipientCount","type":"uint256","indexed":false,"internalType":"uint256"},{"name":"batchHash","type":"bytes32","indexed":true,"internalType":"bytes32"}],"anonymous":false},{"type":"event","name":"MaxRecipientsUpdated","inputs":[{"name":"oldValue","type":"uint256","indexed":false,"internalType":"uint256"},{"name":"newValue","type":"uint256","indexed":false,"internalType":"uint256"}],"anonymous":false},{"type":"event","name":"OwnershipTransferred","inputs":[{"name":"previousOwner","type":"address","indexed":true,"internalType":"address"},{"name":"newOwner","type":"address","indexed":true,"internalType":"address"}],"anonymous":false},{"type":"event","name":"Paused","inputs":[{"name":"account","type":"address","indexed":false,"internalType":"address"}],"anonymous":false},{"type":"event","name":"Unpaused","inputs":[{"name":"account","type":"address","indexed":false,"internalType":"address"}],"anonymous":false},{"type":"error","name":"EmptyArrays","inputs":[]},{"type":"error","name":"EmptyRecipients","inputs":[]},{"type":"error","name":"EnforcedPause","inputs":[]},{"type":"error","name":"EthArraysMismatch","inputs":[]},{"type":"error","name":"ExpectedPause","inputs":[]},{"type":"error","name":"FailedCall","inputs":[]},{"type":"error","name":"IncorrectMsgValue","inputs":[]},{"type":"error","name":"InsufficientBalance","inputs":[{"name":"balance","type":"uint256","internalType":"uint256"},{"name":"needed","type":"uint256","internalType":"uint256"}]},{"type":"error","name":"InvalidMaxRecipients","inputs":[]},{"type":"error","name":"LengthMismatch","inputs":[]},{"type":"error","name":"OwnableInvalidOwner","inputs":[{"name":"owner","type":"address","internalType":"address"}]},{"type":"error","name":"OwnableUnauthorizedAccount","inputs":[{"name":"account","type":"address","internalType":"address"}]},{"type":"error","name":"ReentrancyGuardReentrantCall","inputs":[]},{"type":"error","name":"SafeERC20FailedOperation","inputs":[{"name":"token","type":"address","internalType":"address"}]},{"type":"error","name":"TokenArraysMismatch","inputs":[]},{"type":"error","name":"TooManyRecipients","inputs":[]},{"type":"error","name":"ZeroAmount","inputs":[]},{"type":"error","name":"ZeroRecipient","inputs":[]},{"type":"error","name":"ZeroTokenAddress","inputs":[]}],"bytecode":{"object":"0x60808060405234609a5760017f9b779b17422d0df92223018b32b4d1fa46e071723d6817e2486d003becc55f005533156087575f8054336001600160a01b0319821681178355916001600160a01b03909116907f8be0079c531659141344cd1fd0a4f28419497f9722a3daafe3b4186f6b6457e09080a360646001556111df908161009f8239f35b631e4fbdf760e01b5f525f60045260245ffd5b5f80fdfe6080604052600436101561001a575b3615610018575f80fd5b005b5f3560e01c806303371b7614610109578063148ec9ab1461010457806320651d5d146100ff578063277327a5146100fa57806333d92b37146100f55780633b3b687c146100f05780633f4ba83a146100eb5780635c975abb146100e6578063715018a6146100e15780638456cb59146100dc57806388a13072146100d75780638da5cb5b146100d25780638deab3de146100cd578063f2fde38b146100c85763fc0070060361000e57610a99565b610a10565b610878565b610851565b610834565b6107d4565b61077d565b610759565b6106ed565b610566565b6104aa565b61044c565b610280565b610172565b610123565b6001600160a01b0381160361011f57565b5f80fd5b3461011f57604036600319011261011f576004356101408161010e565b60243561014b610e70565b6001600160a01b038216156101635761001891610e96565b63d27b444360e01b5f5260045ffd5b3461011f57602036600319011261011f5760043561018e610e70565b801580156101e7575b6101d85760018054908290556040805191825260208201929092527fb010296fe6d61754e2577ef181d6f11c23e4f4fe93836511bb79364acd791c689190a1005b636bd60ab760e11b5f5260045ffd5b506101f48111610197565b9181601f8401121561011f578235916001600160401b03831161011f576020808501948460051b01011161011f57565b90606060031983011261011f5760043561023b8161010e565b916024356001600160401b03811161011f578161025a916004016101f2565b92909291604435906001600160401b03821161011f5761027c916004016101f2565b9091565b3461011f5761028e36610222565b9061029a949294610f09565b6102a2610f41565b6001600160a01b03831693841561043d57851561042e5782860361041f576001548611610410575f935f5b8481106103ae57506102e185303389610f5e565b5f5b87811061037c57509261033f61036393610331610349947fdaa350893dac5a849248317237a4d891fd4dd0d391c1a35be6b3c6abf7634398976040519586948d429443943360208a01610c40565b03601f198101835282610ca2565b6020815191012090565b604080519485526020850196909652943393918291820190565b0390a461001860015f51602061118a5f395f51905f5255565b806103a86103956103906001948c88610b99565b610bbd565b6103a0838989610b99565b35908a610fec565b016102e3565b946103cc6103c0610390888b87610b99565b6001600160a01b031690565b15610163576103dc868686610b99565b3515610401576103fa6001916103f3888888610b99565b3590610bca565b95016102cd565b631f2a200560e01b5f5260045ffd5b635531b49560e01b5f5260045ffd5b631fec674760e31b5f5260045ffd5b632a67cf2360e01b5f5260045ffd5b636b093aad60e01b5f5260045ffd5b3461011f57606036600319011261011f576004356104698161010e565b602435906104768261010e565b60443590610482610e70565b6001600160a01b031691821561043d576001600160a01b038116156101635761001892610fec565b60a036600319011261011f576004356001600160401b03811161011f576104d59036906004016101f2565b6024356001600160401b03811161011f576104f49036906004016101f2565b6044939193356001600160401b03811161011f576105169036906004016101f2565b6064929192356001600160401b03811161011f576105389036906004016101f2565b939092608435976001600160401b03891161011f5761055e6100189936906004016101f2565b989097610cc8565b604036600319011261011f576004356001600160401b03811161011f576105919036906004016101f2565b906024356001600160401b03811161011f576105b19036906004016101f2565b6105bc929192610f09565b6105c4610f41565b831561042e5780840361041f576001548411610410575f925f5b8281106106ad575083340361069e575f5b85811061066f57507fd7667e73b5b8ff48211222f54c8e69bbccd7460de261b59cce16fba33e441d149261033f6106569361033161063c9460405194859342928c43933360208901610e1b565b604080519485526020850195909552933393918291820190565b0390a361001860015f51602061118a5f395f51905f5255565b806106986106866103c06103906001958b8a610b99565b610691838787610b99565b3590610e96565b016105ef565b6326ea953d60e01b5f5260045ffd5b936106bf6103c0610390878988610b99565b15610163576106cf858484610b99565b3515610401576106e66001916103f3878686610b99565b94016105de565b3461011f575f36600319011261011f57610705610e70565b5f5460ff8160a01c161561074a5760ff60a01b19165f556040513381527f5db9ee0a495bf2e6ff9c91a7834c1ba4fdd244a5e8aa4e537bd38aeae4b073aa90602090a1005b638dfc202b60e01b5f5260045ffd5b3461011f575f36600319011261011f57602060ff5f5460a01c166040519015158152f35b3461011f575f36600319011261011f57610795610e70565b5f80546001600160a01b0319811682556001600160a01b03167f8be0079c531659141344cd1fd0a4f28419497f9722a3daafe3b4186f6b6457e08280a3005b3461011f575f36600319011261011f576107ec610e70565b6107f4610f41565b5f805460ff60a01b1916600160a01b1790556040513381527f62e78cea01bee320cd4e420270b5ea74000d11b0c9f74754ebdbfc544b05a25890602090a1005b3461011f575f36600319011261011f576020600154604051908152f35b3461011f575f36600319011261011f575f546040516001600160a01b039091168152602090f35b3461011f57606036600319011261011f576004356001600160401b03811161011f576108a89036906004016101f2565b906024356001600160401b03811161011f576108c89036906004016101f2565b906044356001600160401b03811161011f576108e89036906004016101f2565b6108f3949194610f09565b6108fb610f41565b8515610a01578386148015906109f7575b61041f576001548611610410575f5b86811061097b575061033f926109469594926103319260405196879542948b43953360208b01610e43565b6040519182529033907fc87853b37ea97e049970ba54cc1028d7ef0e8be948008423bec86498d020678f908060208101610656565b61098c6103c0610390838a87610b99565b1561043d576109a26103c0610390838888610b99565b15610163576109b2818388610b99565b351561040157806109f16109cf6103c06103906001958c89610b99565b6109dd610390848a8a610b99565b6109e884878c610b99565b35913390610f5e565b0161091b565b508084141561090c565b63a600c81d60e01b5f5260045ffd5b3461011f57602036600319011261011f57600435610a2d8161010e565b610a35610e70565b6001600160a01b03168015610a86575f80546001600160a01b03198116831782556001600160a01b0316907f8be0079c531659141344cd1fd0a4f28419497f9722a3daafe3b4186f6b6457e09080a3005b631e4fbdf760e01b5f525f60045260245ffd5b3461011f57610aa736610222565b90610ab3949294610f09565b610abb610f41565b6001600160a01b03831693841561043d57851561042e5782860361041f576001548611610410575f935f5b878110610b3457509261033f61036393610331610349947fdaa350893dac5a849248317237a4d891fd4dd0d391c1a35be6b3c6abf7634398976040519586948d429443943360208a01610c40565b94610b466103c0610390888b87610b99565b1561016357610b56868686610b99565b351561040157610b92600191610b87610b736103908a8d89610b99565b610b7e8a8a8a610b99565b3590338c610f5e565b6103f3888888610b99565b9501610ae6565b9190811015610ba95760051b0190565b634e487b7160e01b5f52603260045260245ffd5b35610bc78161010e565b90565b91908201809211610bd757565b634e487b7160e01b5f52601160045260245ffd5b905f5b818110610bfb5750505090565b9091926020806001928635610c0f8161010e565b848060a01b031681520194019101919091610bee565b91906001600160fb1b03811161011f5760051b809282370190565b936028610c829695610c7c9460409b9996946001600160601b03199060601b1682526001600160601b03199060601b1660148201520191610beb565b91610c25565b91825260208201520190565b634e487b7160e01b5f52604160045260245ffd5b90601f801991011681019081106001600160401b03821117610cc357604052565b610c8e565b929496989198979097959395610cdc610f09565b610ce4610f41565b858914801590610dd3575b610dc457828103610db557600154808211908115610dab575b5061041057899489898989610d1f88888888611042565b9e610d2a948a6110e6565b604051988998610d4498429843988e903360208f01610ddd565b03601f1981018252610d569082610ca2565b80516020918201206040805194855291840192909252909133917f06873d57a8a82d157f1d58ec6c6e8af2974615e46ef280719b0463a29ca38db691a3610da960015f51602061118a5f395f51905f5255565b565b905089115f610d08565b631e8b7a8560e11b5f5260045ffd5b6309946ca160e01b5f5260045ffd5b5087891415610cef565b93610c829a9995610e1560409f9d9a989594610c7c9a956014610e1599610c7c976001600160601b03199060601b1681520191610beb565b91610beb565b91610c82949360146040999794610c7c946001600160601b03199060601b1681520191610beb565b604099979492610c7c946014610e1593610c829a99956001600160601b03199060601b1681520191610beb565b5f546001600160a01b03163303610e8357565b63118cdaa760e01b5f523360045260245ffd5b90804710610ef3576040519060208201928284106001600160401b03851117610cc3576040939093525f8252610ed4926001600160a01b031661116d565b15610edb57565b3d15155f0361117e5763d6bda27560e01b5f5260045ffd5b4763cf47918160e01b5f5260045260245260445ffd5b60025f51602061118a5f395f51905f525414610f325760025f51602061118a5f395f51905f5255565b633ee5aeb560e01b5f5260045ffd5b60ff5f5460a01c16610f4f57565b63d93c066560e01b5f5260045ffd5b6040516323b872dd60e01b5f9081526001600160a01b039384166004529290931660245260449390935260209060648180865af160015f5114811615610fcd575b6040919091525f606052155b610fb25750565b635274afe760e01b5f526001600160a01b031660045260245ffd5b6001811516610fe3573d15833b15151616610f9f565b503d5f823e3d90fd5b916040519163a9059cbb60e01b5f5260018060a01b031660045260245260205f60448180865af160015f511481161561102c575b60409190915215610fab565b6001811516610fe3573d15833b15151616611020565b919093925f9480156110d7575f5b828110611097575085340361069e575f5b81811061106f575050505050565b806110916110866103c0610390600195878b610b99565b610691838789610b99565b01611061565b956110a96103c0610390898589610b99565b15610163576110b9878486610b99565b3515610401576110d06001916103f3898688610b99565b9601611050565b5050505090503461069e575f90565b93905f5b8181106110fa5750505050505050565b61110b6103c061039083858a610b99565b1561043d576111216103c0610390838888610b99565b1561016357611131818885610b99565b3515610401578061116761114e6103c0610390600195878c610b99565b61115c610390848a8a610b99565b6109e8848c89610b99565b016110ea565b915f928392602083519301915af190565b6040513d5f823e3d90fdfe9b779b17422d0df92223018b32b4d1fa46e071723d6817e2486d003becc55f00a26469706673582212200ddc48f21e88b140668439c8d190d2200c8394df482e48dff45d2136876f43ca64736f6c634300081e0033","linkReferences":{}},"methodIdentifiers":{"batchTransferCombinedMultiTokens(address[],address[],uint256[],address[],uint256[])":"33d92b37","batchTransferEth(address[],uint256[])":"3b3b687c","batchTransferMultiTokens(address[],address[],uint256[])":"8deab3de","batchTransferToken(address,address[],uint256[])":"20651d5d","emergencyWithdrawEth(address,uint256)":"03371b76","emergencyWithdrawToken(address,address,uint256)":"277327a5","maxRecipients()":"88a13072","owner()":"8da5cb5b","pause()":"8456cb59","paused()":"5c975abb","renounceOwnership()":"715018a6","setMaxRecipients(uint256)":"148ec9ab","simpleBatchTransferToken(address,address[],uint256[])":"fc007006","transferOwnership(address)":"f2fde38b","unpause()":"3f4ba83a"},"id":36}