{"abi":[{"type":"constructor","inputs":[],"stateMutability":"nonpayable"},{"type":"receive","stateMutability":"payable"},{"type":"function","name":"batchTransferCombinedMultiTokens","inputs":[{"name":"tokenAddresses","type":"address[]","internalType":"address[]"},{"name":"tokenRecipients","type":"address[]","internalType":"address[]"},{"name":"tokenAmounts","type":"uint256[]","internalType":"uint256[]"},{"name":"ethRecipients","type":"address[]","internalType":"address[]"},{"name":"ethAmounts","type":"uint256[]","internalType":"uint256[]"}],"outputs":[],"stateMutability":"payable"},{"type":"function","name":"batchTransferEth","inputs":[{"name":"recipients","type":"address[]","internalType":"address[]"},{"name":"amounts","type":"uint256[]","internalType":"uint256[]"}],"outputs":[],"stateMutability":"payable"},{"type":"function","name":"batchTransferMultiTokens","inputs":[{"name":"tokenAddresses","type":"address[]","internalType":"address[]"},{"name":"recipients","type":"address[]","internalType":"address[]"},{"name":"amounts","type":"uint256[]","internalType":"uint256[]"}],"outputs":[],"stateMutability":"nonpayable"},{"type":"function","name":"batchTransferToken","inputs":[{"name":"tokenAddress","type":"address","internalType":"address"},{"name":"recipients","type":"address[]","internalType":"address[]"},{"name":"amounts","type":"uint256[]","internalType":"uint256[]"}],"outputs":[],"stateMutability":"nonpayable"},{"type":"function","name":"emergencyWithdrawEth","inputs":[{"name":"to","type":"address","internalType":"address payable"},{"name":"amount","type":"uint256","internalType":"uint256"}],"outputs":[],"stateMutability":"nonpayable"},{"type":"function","name":"emergencyWithdrawToken","inputs":[{"name":"tokenAddress","type":"address","internalType":"address"},{"name":"to","type":"address","internalType":"address"},{"name":"amount","type":"uint256","internalType":"uint256"}],"outputs":[],"stateMutability":"nonpayable"},{"type":"function","name":"maxRecipients","inputs":[],"outputs":[{"name":"","type":"uint256","internalType":"uint256"}],"stateMutability":"view"},{"type":"function","name":"owner","inputs":[],"outputs":[{"name":"","type":"address","internalType":"address"}],"stateMutability":"view"},{"type":"function","name":"pause","inputs":[],"outputs":[],"stateMutability":"nonpayable"},{"type":"function","name":"paused","inputs":[],"outputs":[{"name":"","type":"bool","internalType":"bool"}],"stateMutability":"view"},{"type":"function","name":"renounceOwnership","inputs":[],"outputs":[],"stateMutability":"nonpayable"},{"type":"function","name":"setMaxRecipients","inputs":[{"name":"_maxRecipients","type":"uint256","internalType":"uint256"}],"outputs":[],"stateMutability":"nonpayable"},{"type":"function","name":"simpleBatchTransferToken","inputs":[{"name":"tokenAddress","type":"address","internalType":"address"},{"name":"recipients","type":"address[]","internalType":"address[]"},{"name":"amounts","type":"uint256[]","internalType":"uint256[]"}],"outputs":[],"stateMutability":"nonpayable"},{"type":"function","name":"transferOwnership","inputs":[{"name":"newOwner","type":"address","internalType":"address"}],"outputs":[],"stateMutability":"nonpayable"},{"type":"function","name":"unpause","inputs":[],"outputs":[],"stateMutability":"nonpayable"},{"type":"event","name":"BatchTransferCombined","inputs":[{"name":"sender","type":"address","indexed":true,"internalType":"address"},{"name":"ethAmount","type":"uint256","indexed":false,"internalType":"uint256"},{"name":"tokenCount","type":"uint256","indexed":false,"internalType":"uint256"},{"name":"batchHash","type":"bytes32","indexed":true,"internalType":"bytes32"}],"anonymous":false},{"type":"event","name":"BatchTransferEth","inputs":[{"name":"sender","type":"address","indexed":true,"internalType":"address"},{"name":"totalAmount","type":"uint256","indexed":false,"internalType":"uint256"},{"name":"recipientCount","type":"uint256","indexed":false,"internalType":"uint256"},{"name":"batchHash","type":"bytes32","indexed":true,"internalType":"bytes32"}],"anonymous":false},{"type":"event","name":"BatchTransferMultiToken","inputs":[{"name":"sender","type":"address","indexed":true,"internalType":"address"},{"name":"tokenCount","type":"uint256","indexed":false,"internalType":"uint256"},{"name":"batchHash","type":"bytes32","indexed":true,"internalType":"bytes32"}],"anonymous":false},{"type":"event","name":"BatchTransferToken","inputs":[{"name":"sender","type":"address","indexed":true,"internalType":"address"},{"name":"token","type":"address","indexed":true,"internalType":"address"},{"name":"totalAmount","type":"uint256","indexed":false,"internalType":"uint256"},{"name":"recipientCount","type":"uint256","indexed":false,"internalType":"uint256"},{"name":"batchHash","type":"bytes32","indexed":true,"internalType":"bytes32"}],"anonymous":false},{"type":"event","name":"MaxRecipientsUpdated","inputs":[{"name":"oldValue","type":"uint256","indexed":false,"internalType":"uint256"},{"name":"newValue","type":"uint256","indexed":false,"internalType":"uint256"}],"anonymous":false},{"type":"event","name":"OwnershipTransferred","inputs":[{"name":"previousOwner","type":"address","indexed":true,"internalType":"address"},{"name":"newOwner","type":"address","indexed":true,"internalType":"address"}],"anonymous":false},{"type":"event","name":"Paused","inputs":[{"name":"account","type":"address","indexed":false,"internalType":"address"}],"anonymous":false},{"type":"event","name":"Unpaused","inputs":[{"name":"account","type":"address","indexed":false,"internalType":"address"}],"anonymous":false},{"type":"error","name":"EnforcedPause","inputs":[]},{"type":"error","name":"ExpectedPause","inputs":[]},{"type":"error","name":"FailedCall","inputs":[]},{"type":"error","name":"InsufficientBalance","inputs":[{"name":"balance","type":"uint256","internalType":"uint256"},{"name":"needed","type":"uint256","internalType":"uint256"}]},{"type":"error","name":"OwnableInvalidOwner","inputs":[{"name":"owner","type":"address","internalType":"address"}]},{"type":"error","name":"OwnableUnauthorizedAccount","inputs":[{"name":"account","type":"address","internalType":"address"}]},{"type":"error","name":"ReentrancyGuardReentrantCall","inputs":[]},{"type":"error","name":"SafeERC20FailedOperation","inputs":[{"name":"token","type":"address","internalType":"address"}]}],"bytecode":{"object":"0x60808060405234609a5760017f9b779b17422d0df92223018b32b4d1fa46e071723d6817e2486d003becc55f005533156087575f8054336001600160a01b0319821681178355916001600160a01b03909116907f8be0079c531659141344cd1fd0a4f28419497f9722a3daafe3b4186f6b6457e09080a36064600155611671908161009f8239f35b631e4fbdf760e01b5f525f60045260245ffd5b5f80fdfe6080604052600436101561001a575b3615610018575f80fd5b005b5f3560e01c806303371b7614610109578063148ec9ab1461010457806320651d5d146100ff578063277327a5146100fa57806333d92b37146100f55780633b3b687c146100f05780633f4ba83a146100eb5780635c975abb146100e6578063715018a6146100e15780638456cb59146100dc57806388a13072146100d75780638da5cb5b146100d25780638deab3de146100cd578063f2fde38b146100c85763fc0070060361000e57610a96565b610a0d565b610878565b610851565b610834565b6107d4565b61077d565b610759565b6106ed565b610568565b6104ac565b610447565b6102a7565b610168565b610123565b6001600160a01b0381160361011f57565b5f80fd5b3461011f57604036600319011261011f576100186004356101438161010e565b6024359061014f611143565b6101636001600160a01b0382161515610bde565b611169565b3461011f57602036600319011261011f57600435610184611143565b8015158061020d575b156101cf5760018054908290556040805191825260208201929092527fb010296fe6d61754e2577ef181d6f11c23e4f4fe93836511bb79364acd791c689190a1005b60405162461bcd60e51b8152602060048201526016602482015275496e76616c6964206d617820726563697069656e747360501b6044820152606490fd5b506101f481111561018d565b9181601f8401121561011f578235916001600160401b03831161011f576020808501948460051b01011161011f57565b90606060031983011261011f576004356102628161010e565b916024356001600160401b03811161011f578161028191600401610219565b92909291604435906001600160401b03821161011f576102a391600401610219565b9091565b3461011f576102b536610249565b906102c19492946111dc565b6102c9611214565b6001600160a01b038316936102df851515610c1b565b6102ea861515610c5c565b6102f5838714610c9b565b610303600154871115610cd9565b5f935f5b878582106103ea57505061031d85303389611231565b5f5b8781106103b857509261037b61039f9361036d610385947fdaa350893dac5a849248317237a4d891fd4dd0d391c1a35be6b3c6abf7634398976040519586948d429443943360208a01610dfc565b03601f198101835282610e5e565b6020815191012090565b604080519485526020850196909652943393918291820190565b0390a461001860015f51602061161c5f395f51905f5255565b806103e46103d16103cc6001948c88610d1b565b610d3f565b6103dc838989610d1b565b35908a6112bf565b0161031f565b81966104186104116104056103cc600196610440968a610d1b565b6001600160a01b031690565b1515610bde565b61042e610426898989610d1b565b351515610d4c565b610439888888610d1b565b3590610d86565b9501610307565b3461011f57606036600319011261011f576100186004356104678161010e565b6024356104738161010e565b6044359161047f611143565b6001600160a01b0316610493811515610c1b565b6104a76001600160a01b0383161515610bde565b6112bf565b60a036600319011261011f576004356001600160401b03811161011f576104d7903690600401610219565b6024356001600160401b03811161011f576104f6903690600401610219565b6044939193356001600160401b03811161011f57610518903690600401610219565b6064929192356001600160401b03811161011f5761053a903690600401610219565b939092608435976001600160401b03891161011f57610560610018993690600401610219565b989097610e84565b604036600319011261011f576004356001600160401b03811161011f57610593903690600401610219565b906024356001600160401b03811161011f576105b3903690600401610219565b6105be9291926111dc565b6105c6611214565b6105d1841515610c5c565b6105dc818514610c9b565b6105ea600154851115610cd9565b5f925f5b8281106106b25750610601843414611034565b5f5b85811061068357507fd7667e73b5b8ff48211222f54c8e69bbccd7460de261b59cce16fba33e441d149261037b61066a9361036d6106509460405194859342928c43933360208901611076565b604080519485526020850195909552933393918291820190565b0390a361001860015f51602061161c5f395f51905f5255565b806106ac61069a6104056103cc6001958b8a610d1b565b6106a5838787610d1b565b3590611169565b01610603565b936106e66001916106cd6104116104056103cc8a8c8b610d1b565b6106db610426888787610d1b565b610439878686610d1b565b94016105ee565b3461011f575f36600319011261011f57610705611143565b5f5460ff8160a01c161561074a5760ff60a01b19165f556040513381527f5db9ee0a495bf2e6ff9c91a7834c1ba4fdd244a5e8aa4e537bd38aeae4b073aa90602090a1005b638dfc202b60e01b5f5260045ffd5b3461011f575f36600319011261011f57602060ff5f5460a01c166040519015158152f35b3461011f575f36600319011261011f57610795611143565b5f80546001600160a01b0319811682556001600160a01b03167f8be0079c531659141344cd1fd0a4f28419497f9722a3daafe3b4186f6b6457e08280a3005b3461011f575f36600319011261011f576107ec611143565b6107f4611214565b5f805460ff60a01b1916600160a01b1790556040513381527f62e78cea01bee320cd4e420270b5ea74000d11b0c9f74754ebdbfc544b05a25890602090a1005b3461011f575f36600319011261011f576020600154604051908152f35b3461011f575f36600319011261011f575f546040516001600160a01b039091168152602090f35b3461011f57606036600319011261011f576004356001600160401b03811161011f576108a8903690600401610219565b906024356001600160401b03811161011f576108c8903690600401610219565b906044356001600160401b03811161011f576108e8903690600401610219565b6108f39491946111dc565b6108fb611214565b61090686151561109e565b83861480610a04575b61091890610c9b565b6109266001548711156110d9565b5f5b868110610988575061037b9261095395949261036d9260405196879542948b43953360208b01611116565b6040519182529033907fc87853b37ea97e049970ba54cc1028d7ef0e8be948008423bec86498d020678f90806020810161066a565b806109a661099f6104056103cc6001958c89610d1b565b1515610c1b565b6109ba6104116104056103cc848a8a610d1b565b6109c861042682858a610d1b565b6109fe6109dc6104056103cc848c89610d1b565b6109ea6103cc848a8a610d1b565b6109f584878c610d1b565b35913390611231565b01610928565b5083811461090f565b3461011f57602036600319011261011f57600435610a2a8161010e565b610a32611143565b6001600160a01b03168015610a83575f80546001600160a01b03198116831782556001600160a01b0316907f8be0079c531659141344cd1fd0a4f28419497f9722a3daafe3b4186f6b6457e09080a3005b631e4fbdf760e01b5f525f60045260245ffd5b3461011f57610aa436610249565b9392610ab19291926111dc565b610ab9611214565b6001600160a01b03841693610acf851515610c1b565b610ada831515610c5c565b610ae5868414610c9b565b610af3600154841115610cd9565b5f5b838110610b8857509061037b610b1f9261036d6040519384928a8989429443943360208a01610dfc565b935f925f915b808310610b6b5750506040805193845260208401929092525033917fdaa350893dac5a849248317237a4d891fd4dd0d391c1a35be6b3c6abf7634398918190810161039f565b909193610b7f600191610439878587610d1b565b94019190610b25565b80610ba26104116104056103cc60019589899d9b9d610d1b565b610bb061042682888b610d1b565b610bd5610bc16103cc838888610d1b565b610bcc83898c610d1b565b3590338a611231565b01959395610af5565b15610be557565b60405162461bcd60e51b815260206004820152600e60248201526d16995c9bc81c9958da5c1a595b9d60921b6044820152606490fd5b15610c2257565b60405162461bcd60e51b81526020600482015260126024820152715a65726f20746f6b656e206164647265737360701b6044820152606490fd5b15610c6357565b60405162461bcd60e51b815260206004820152601060248201526f456d70747920726563697069656e747360801b6044820152606490fd5b15610ca257565b60405162461bcd60e51b815260206004820152600f60248201526e098cadccee8d040dad2e6dac2e8c6d608b1b6044820152606490fd5b15610ce057565b60405162461bcd60e51b8152602060048201526013602482015272546f6f206d616e7920726563697069656e747360681b6044820152606490fd5b9190811015610d2b5760051b0190565b634e487b7160e01b5f52603260045260245ffd5b35610d498161010e565b90565b15610d5357565b60405162461bcd60e51b815260206004820152600b60248201526a16995c9bc8185b5bdd5b9d60aa1b6044820152606490fd5b91908201809211610d9357565b634e487b7160e01b5f52601160045260245ffd5b905f5b818110610db75750505090565b9091926020806001928635610dcb8161010e565b848060a01b031681520194019101919091610daa565b91906001600160fb1b03811161011f5760051b809282370190565b936028610e3e9695610e389460409b9996946001600160601b03199060601b1682526001600160601b03199060601b1660148201520191610da7565b91610de1565b91825260208201520190565b634e487b7160e01b5f52604160045260245ffd5b90601f801991011681019081106001600160401b03821117610e7f57604052565b610e4a565b929496989198979097959395610e986111dc565b610ea0611214565b85891480610fed575b15610fb057828103610f75578994610ece600154808411159081610f6a575b506110d9565b89898989610ede88888888611421565b9e610ee9948a611518565b604051988998610f0398429843988e903360208f01610ff6565b03601f1981018252610f159082610e5e565b80516020918201206040805194855291840192909252909133917f06873d57a8a82d157f1d58ec6c6e8af2974615e46ef280719b0463a29ca38db691a3610f6860015f51602061161c5f395f51905f5255565b565b90508b11155f610ec8565b60405162461bcd60e51b815260206004820152601360248201527208aa89040c2e4e4c2f2e640dad2e6dac2e8c6d606b1b6044820152606490fd5b60405162461bcd60e51b81526020600482015260156024820152740a8ded6cadc40c2e4e4c2f2e640dad2e6dac2e8c6d605b1b6044820152606490fd5b50878914610ea9565b93610e3e9a999561102e60409f9d9a989594610e389a95601461102e99610e38976001600160601b03199060601b1681520191610da7565b91610da7565b1561103b57565b60405162461bcd60e51b8152602060048201526013602482015272496e636f7272656374206d73672e76616c756560681b6044820152606490fd5b91610e3e949360146040999794610e38946001600160601b03199060601b1681520191610da7565b156110a557565b60405162461bcd60e51b815260206004820152600c60248201526b456d7074792061727261797360a01b6044820152606490fd5b156110e057565b60405162461bcd60e51b815260206004820152600e60248201526d546f6f206d616e79206974656d7360901b6044820152606490fd5b604099979492610e3894601461102e93610e3e9a99956001600160601b03199060601b1681520191610da7565b5f546001600160a01b0316330361115657565b63118cdaa760e01b5f523360045260245ffd5b908047106111c6576040519060208201928284106001600160401b03851117610e7f576040939093525f82526111a7926001600160a01b03166115ff565b156111ae57565b3d15155f036116105763d6bda27560e01b5f5260045ffd5b4763cf47918160e01b5f5260045260245260445ffd5b60025f51602061161c5f395f51905f5254146112055760025f51602061161c5f395f51905f5255565b633ee5aeb560e01b5f5260045ffd5b60ff5f5460a01c1661122257565b63d93c066560e01b5f5260045ffd5b6040516323b872dd60e01b5f9081526001600160a01b039384166004529290931660245260449390935260209060648180865af160015f51148116156112a0575b6040919091525f606052155b6112855750565b635274afe760e01b5f526001600160a01b031660045260245ffd5b60018115166112b6573d15833b15151616611272565b503d5f823e3d90fd5b916040519163a9059cbb60e01b5f5260018060a01b031660045260245260205f60448180865af160015f51148116156112ff575b6040919091521561127e565b60018115166112b6573d15833b151516166112f3565b1561131c57565b60405162461bcd60e51b815260206004820152601a60248201527f4554482073656e7420627574206e6f20726563697069656e74730000000000006044820152606490fd5b1561136857565b60405162461bcd60e51b815260206004820152601260248201527116995c9bc8115512081c9958da5c1a595b9d60721b6044820152606490fd5b156113a957565b60405162461bcd60e51b815260206004820152600f60248201526e16995c9bc811551208185b5bdd5b9d608a1b6044820152606490fd5b156113e757565b60405162461bcd60e51b8152602060048201526012602482015271125b98dbdc9c9958dd08115512081cd95b9d60721b6044820152606490fd5b919093925f9480156114c4575f5b82811061147a57506114428634146113e0565b5f5b818110611452575050505050565b806114746114696104056103cc600195878b610d1b565b6106a5838789610d1b565b01611444565b956114bd60019161149c6114956104056103cc8c888c610d1b565b1515611361565b6114b26114aa8a8789610d1b565b3515156113a2565b610439898688610d1b565b960161142f565b5050505090506114d43415611315565b5f90565b156114df57565b60405162461bcd60e51b815260206004820152601160248201527016995c9bc81d1bdad95b88185b5bdd5b9d607a1b6044820152606490fd5b93905f5b81811061152c5750505050505050565b61155461153a828489610d1b565b356115448161010e565b6001600160a01b03161515610c1b565b61155f818686610d1b565b356115698161010e565b6001600160a01b0316156115c357806115906115886001938a87610d1b565b3515156114d8565b6115bd6115a46104056103cc84878c610d1b565b6115b26103cc848a8a610d1b565b6109f5848c89610d1b565b0161151c565b60405162461bcd60e51b815260206004820152601460248201527316995c9bc81d1bdad95b881c9958da5c1a595b9d60621b6044820152606490fd5b915f928392602083519301915af190565b6040513d5f823e3d90fdfe9b779b17422d0df92223018b32b4d1fa46e071723d6817e2486d003becc55f00a2646970667358221220d9ba000954d1e2f4c5fb634914a2757083c79f9ebbee64de15707214f758a87764736f6c634300081e0033","linkReferences":{}},"methodIdentifiers":{"batchTransferCombinedMultiTokens(address[],address[],uint256[],address[],uint256[])":"33d92b37","batchTransferEth(address[],uint256[])":"3b3b687c","batchTransferMultiTokens(address[],address[],uint256[])":"8deab3de","batchTransferToken(address,address[],uint256[])":"20651d5d","emergencyWithdrawEth(address,uint256)":"03371b76","emergencyWithdrawToken(address,address,uint256)":"277327a5","maxRecipients()":"88a13072","owner()":"8da5cb5b","pause()":"8456cb59","paused()":"5c975abb","renounceOwnership()":"715018a6","setMaxRecipients(uint256)":"148ec9ab","simpleBatchTransferToken(address,address[],uint256[])":"fc007006","transferOwnership(address)":"f2fde38b","unpause()":"3f4ba83a"},"id":36}